{
	"data": {
		"bytecode": {
			"linkReferences": {},
			"object": "60806040526040518060a00160405280600160ff168152602001600260ff168152602001600360ff168152602001600460ff168152602001600560ff16815250600190600561004f9291906100d0565b5034801561005c57600080fd5b50600060405161006b90610122565b604051809103906000f080158015610087573d6000803e3d6000fd5b509050806000806101000a81548173ffffffffffffffffffffffffffffffffffffffff021916908373ffffffffffffffffffffffffffffffffffffffff1602179055505061014c565b828054828255906000526020600020908101928215610111579160200282015b82811115610110578251829060ff169055916020019190600101906100f0565b5b50905061011e919061012f565b5090565b6106228061066583390190565b5b80821115610148576000816000905550600101610130565b5090565b61050a8061015b6000396000f3fe608060405234801561001057600080fd5b50600436106100415760003560e01c806358186e811461004657806371e5ee5f14610064578063ec0c727d14610094575b600080fd5b61004e6100b2565b60405161005b9190610240565b60405180910390f35b61007e6004803603810190610079919061028c565b61015c565b60405161008b9190610240565b60405180910390f35b61009c610180565b6040516100a99190610240565b60405180910390f35b60008060008054906101000a900473ffffffffffffffffffffffffffffffffffffffff1690508073ffffffffffffffffffffffffffffffffffffffff1663b67d77c5600b60026040518363ffffffff1660e01b8152600401610115929190610339565b602060405180830381865afa158015610132573d6000803e3d6000fd5b505050506040513d601f19601f820116820180604052508101906101569190610377565b91505090565b6001818154811061016c57600080fd5b906000526020600020016000915090505481565b60008060008054906101000a900473ffffffffffffffffffffffffffffffffffffffff1690508073ffffffffffffffffffffffffffffffffffffffff166310b0b5d560016040518263ffffffff1660e01b81526004016101e091906104b2565b602060405180830381865afa1580156101fd573d6000803e3d6000fd5b505050506040513d601f19601f820116820180604052508101906102219190610377565b91505090565b6000819050919050565b61023a81610227565b82525050565b60006020820190506102556000830184610231565b92915050565b600080fd5b61026981610227565b811461027457600080fd5b50565b60008135905061028681610260565b92915050565b6000602082840312156102a2576102a161025b565b5b60006102b084828501610277565b91505092915050565b6000819050919050565b6000819050919050565b60006102e86102e36102de846102b9565b6102c3565b610227565b9050919050565b6102f8816102cd565b82525050565b6000819050919050565b600061032361031e610319846102fe565b6102c3565b610227565b9050919050565b61033381610308565b82525050565b600060408201905061034e60008301856102ef565b61035b602083018461032a565b9392505050565b60008151905061037181610260565b92915050565b60006020828403121561038d5761038c61025b565b5b600061039b84828501610362565b91505092915050565b600081549050919050565b600082825260208201905092915050565b60008190508160005260206000209050919050565b6103de81610227565b82525050565b60006103f083836103d5565b60208301905092915050565b60008160001c9050919050565b6000819050919050565b6000610426610421836103fc565b610409565b9050919050565b60006104398254610413565b9050919050565b6000600182019050919050565b6000610458826103a4565b61046281856103af565b935061046d836103c0565b8060005b838110156104a5576104828261042d565b61048c88826103e4565b975061049783610440565b925050600181019050610471565b5085935050505092915050565b600060208201905081810360008301526104cc818461044d565b90509291505056fea26469706673582212208cc43b4a6409f764462de2311c8e20c95792c86100c7bb5e528dedc71ed924d764736f6c634300080c0033608060405234801561001057600080fd5b50610602806100206000396000f3fe608060405234801561001057600080fd5b506004361061004c5760003560e01c806310b0b5d5146100515780639aad035814610081578063a391c15b146100b1578063b67d77c5146100e1575b600080fd5b61006b60048036038101906100669190610388565b610111565b60405161007891906103e0565b60405180910390f35b61009b60048036038101906100969190610388565b610165565b6040516100a891906103e0565b60405180910390f35b6100cb60048036038101906100c691906103fb565b6101b9565b6040516100d891906103e0565b60405180910390f35b6100fb60048036038101906100f691906103fb565b6101cf565b60405161010891906103e0565b60405180910390f35b60008060005b835181101561015b578381815181106101335761013261043b565b5b6020026020010151826101469190610499565b91508080610153906104ef565b915050610117565b5080915050919050565b60008060005b83518110156101af578381815181106101875761018661043b565b5b60200260200101518261019a9190610499565b915080806101a7906104ef565b91505061016b565b5080915050919050565b600081836101c79190610567565b905092915050565b600081836101dd9190610598565b905092915050565b6000604051905090565b600080fd5b600080fd5b600080fd5b6000601f19601f8301169050919050565b7f4e487b7100000000000000000000000000000000000000000000000000000000600052604160045260246000fd5b610247826101fe565b810181811067ffffffffffffffff821117156102665761026561020f565b5b80604052505050565b60006102796101e5565b9050610285828261023e565b919050565b600067ffffffffffffffff8211156102a5576102a461020f565b5b602082029050602081019050919050565b600080fd5b6000819050919050565b6102ce816102bb565b81146102d957600080fd5b50565b6000813590506102eb816102c5565b92915050565b60006103046102ff8461028a565b61026f565b90508083825260208201905060208402830185811115610327576103266102b6565b5b835b81811015610350578061033c88826102dc565b845260208401935050602081019050610329565b5050509392505050565b600082601f83011261036f5761036e6101f9565b5b813561037f8482602086016102f1565b91505092915050565b60006020828403121561039e5761039d6101ef565b5b600082013567ffffffffffffffff8111156103bc576103bb6101f4565b5b6103c88482850161035a565b91505092915050565b6103da816102bb565b82525050565b60006020820190506103f560008301846103d1565b92915050565b60008060408385031215610412576104116101ef565b5b6000610420858286016102dc565b9250506020610431858286016102dc565b9150509250929050565b7f4e487b7100000000000000000000000000000000000000000000000000000000600052603260045260246000fd5b7f4e487b7100000000000000000000000000000000000000000000000000000000600052601160045260246000fd5b60006104a4826102bb565b91506104af836102bb565b9250827fffffffffffffffffffffffffffffffffffffffffffffffffffffffffffffffff038211156104e4576104e361046a565b5b828201905092915050565b60006104fa826102bb565b91507fffffffffffffffffffffffffffffffffffffffffffffffffffffffffffffffff82141561052d5761052c61046a565b5b600182019050919050565b7f4e487b7100000000000000000000000000000000000000000000000000000000600052601260045260246000fd5b6000610572826102bb565b915061057d836102bb565b92508261058d5761058c610538565b5b828204905092915050565b60006105a3826102bb565b91506105ae836102bb565b9250828210156105c1576105c061046a565b5b82820390509291505056fea264697066735822122000ced3d8e31aad6734593278875c2a7df0bff81509df426f3fa76d0b8f061c0064736f6c634300080c0033",
			"opcodes": "PUSH1 0x80 PUSH1 0x40 MSTORE PUSH1 0x40 MLOAD DUP1 PUSH1 0xA0 ADD PUSH1 0x40 MSTORE DUP1 PUSH1 0x1 PUSH1 0xFF AND DUP2 MSTORE PUSH1 0x20 ADD PUSH1 0x2 PUSH1 0xFF AND DUP2 MSTORE PUSH1 0x20 ADD PUSH1 0x3 PUSH1 0xFF AND DUP2 MSTORE PUSH1 0x20 ADD PUSH1 0x4 PUSH1 0xFF AND DUP2 MSTORE PUSH1 0x20 ADD PUSH1 0x5 PUSH1 0xFF AND DUP2 MSTORE POP PUSH1 0x1 SWAP1 PUSH1 0x5 PUSH2 0x4F SWAP3 SWAP2 SWAP1 PUSH2 0xD0 JUMP JUMPDEST POP CALLVALUE DUP1 ISZERO PUSH2 0x5C JUMPI PUSH1 0x0 DUP1 REVERT JUMPDEST POP PUSH1 0x0 PUSH1 0x40 MLOAD PUSH2 0x6B SWAP1 PUSH2 0x122 JUMP JUMPDEST PUSH1 0x40 MLOAD DUP1 SWAP2 SUB SWAP1 PUSH1 0x0 CREATE DUP1 ISZERO DUP1 ISZERO PUSH2 0x87 JUMPI RETURNDATASIZE PUSH1 0x0 DUP1 RETURNDATACOPY RETURNDATASIZE PUSH1 0x0 REVERT JUMPDEST POP SWAP1 POP DUP1 PUSH1 0x0 DUP1 PUSH2 0x100 EXP DUP2 SLOAD DUP2 PUSH20 0xFFFFFFFFFFFFFFFFFFFFFFFFFFFFFFFFFFFFFFFF MUL NOT AND SWAP1 DUP4 PUSH20 0xFFFFFFFFFFFFFFFFFFFFFFFFFFFFFFFFFFFFFFFF AND MUL OR SWAP1 SSTORE POP POP PUSH2 0x14C JUMP JUMPDEST DUP3 DUP1 SLOAD DUP3 DUP3 SSTORE SWAP1 PUSH1 0x0 MSTORE PUSH1 0x20 PUSH1 0x0 KECCAK256 SWAP1 DUP2 ADD SWAP3 DUP3 ISZERO PUSH2 0x111 JUMPI SWAP2 PUSH1 0x20 MUL DUP3 ADD JUMPDEST DUP3 DUP2 GT ISZERO PUSH2 0x110 JUMPI DUP3 MLOAD DUP3 SWAP1 PUSH1 0xFF AND SWAP1 SSTORE SWAP2 PUSH1 0x20 ADD SWAP2 SWAP1 PUSH1 0x1 ADD SWAP1 PUSH2 0xF0 JUMP JUMPDEST JUMPDEST POP SWAP1 POP PUSH2 0x11E SWAP2 SWAP1 PUSH2 0x12F JUMP JUMPDEST POP SWAP1 JUMP JUMPDEST PUSH2 0x622 DUP1 PUSH2 0x665 DUP4 CODECOPY ADD SWAP1 JUMP JUMPDEST JUMPDEST DUP1 DUP3 GT ISZERO PUSH2 0x148 JUMPI PUSH1 0x0 DUP2 PUSH1 0x0 SWAP1 SSTORE POP PUSH1 0x1 ADD PUSH2 0x130 JUMP JUMPDEST POP SWAP1 JUMP JUMPDEST PUSH2 0x50A DUP1 PUSH2 0x15B PUSH1 0x0 CODECOPY PUSH1 0x0 RETURN INVALID PUSH1 0x80 PUSH1 0x40 MSTORE CALLVALUE DUP1 ISZERO PUSH2 0x10 JUMPI PUSH1 0x0 DUP1 REVERT JUMPDEST POP PUSH1 0x4 CALLDATASIZE LT PUSH2 0x41 JUMPI PUSH1 0x0 CALLDATALOAD PUSH1 0xE0 SHR DUP1 PUSH4 0x58186E81 EQ PUSH2 0x46 JUMPI DUP1 PUSH4 0x71E5EE5F EQ PUSH2 0x64 JUMPI DUP1 PUSH4 0xEC0C727D EQ PUSH2 0x94 JUMPI JUMPDEST PUSH1 0x0 DUP1 REVERT JUMPDEST PUSH2 0x4E PUSH2 0xB2 JUMP JUMPDEST PUSH1 0x40 MLOAD PUSH2 0x5B SWAP2 SWAP1 PUSH2 0x240 JUMP JUMPDEST PUSH1 0x40 MLOAD DUP1 SWAP2 SUB SWAP1 RETURN JUMPDEST PUSH2 0x7E PUSH1 0x4 DUP1 CALLDATASIZE SUB DUP2 ADD SWAP1 PUSH2 0x79 SWAP2 SWAP1 PUSH2 0x28C JUMP JUMPDEST PUSH2 0x15C JUMP JUMPDEST PUSH1 0x40 MLOAD PUSH2 0x8B SWAP2 SWAP1 PUSH2 0x240 JUMP JUMPDEST PUSH1 0x40 MLOAD DUP1 SWAP2 SUB SWAP1 RETURN JUMPDEST PUSH2 0x9C PUSH2 0x180 JUMP JUMPDEST PUSH1 0x40 MLOAD PUSH2 0xA9 SWAP2 SWAP1 PUSH2 0x240 JUMP JUMPDEST PUSH1 0x40 MLOAD DUP1 SWAP2 SUB SWAP1 RETURN JUMPDEST PUSH1 0x0 DUP1 PUSH1 0x0 DUP1 SLOAD SWAP1 PUSH2 0x100 EXP SWAP1 DIV PUSH20 0xFFFFFFFFFFFFFFFFFFFFFFFFFFFFFFFFFFFFFFFF AND SWAP1 POP DUP1 PUSH20 0xFFFFFFFFFFFFFFFFFFFFFFFFFFFFFFFFFFFFFFFF AND PUSH4 0xB67D77C5 PUSH1 0xB PUSH1 0x2 PUSH1 0x40 MLOAD DUP4 PUSH4 0xFFFFFFFF AND PUSH1 0xE0 SHL DUP2 MSTORE PUSH1 0x4 ADD PUSH2 0x115 SWAP3 SWAP2 SWAP1 PUSH2 0x339 JUMP JUMPDEST PUSH1 0x20 PUSH1 0x40 MLOAD DUP1 DUP4 SUB DUP2 DUP7 GAS STATICCALL ISZERO DUP1 ISZERO PUSH2 0x132 JUMPI RETURNDATASIZE PUSH1 0x0 DUP1 RETURNDATACOPY RETURNDATASIZE PUSH1 0x0 REVERT JUMPDEST POP POP POP POP PUSH1 0x40 MLOAD RETURNDATASIZE PUSH1 0x1F NOT PUSH1 0x1F DUP3 ADD AND DUP3 ADD DUP1 PUSH1 0x40 MSTORE POP DUP2 ADD SWAP1 PUSH2 0x156 SWAP2 SWAP1 PUSH2 0x377 JUMP JUMPDEST SWAP2 POP POP SWAP1 JUMP JUMPDEST PUSH1 0x1 DUP2 DUP2 SLOAD DUP2 LT PUSH2 0x16C JUMPI PUSH1 0x0 DUP1 REVERT JUMPDEST SWAP1 PUSH1 0x0 MSTORE PUSH1 0x20 PUSH1 0x0 KECCAK256 ADD PUSH1 0x0 SWAP2 POP SWAP1 POP SLOAD DUP2 JUMP JUMPDEST PUSH1 0x0 DUP1 PUSH1 0x0 DUP1 SLOAD SWAP1 PUSH2 0x100 EXP SWAP1 DIV PUSH20 0xFFFFFFFFFFFFFFFFFFFFFFFFFFFFFFFFFFFFFFFF AND SWAP1 POP DUP1 PUSH20 0xFFFFFFFFFFFFFFFFFFFFFFFFFFFFFFFFFFFFFFFF AND PUSH4 0x10B0B5D5 PUSH1 0x1 PUSH1 0x40 MLOAD DUP3 PUSH4 0xFFFFFFFF AND PUSH1 0xE0 SHL DUP2 MSTORE PUSH1 0x4 ADD PUSH2 0x1E0 SWAP2 SWAP1 PUSH2 0x4B2 JUMP JUMPDEST PUSH1 0x20 PUSH1 0x40 MLOAD DUP1 DUP4 SUB DUP2 DUP7 GAS STATICCALL ISZERO DUP1 ISZERO PUSH2 0x1FD JUMPI RETURNDATASIZE PUSH1 0x0 DUP1 RETURNDATACOPY RETURNDATASIZE PUSH1 0x0 REVERT JUMPDEST POP POP POP POP PUSH1 0x40 MLOAD RETURNDATASIZE PUSH1 0x1F NOT PUSH1 0x1F DUP3 ADD AND DUP3 ADD DUP1 PUSH1 0x40 MSTORE POP DUP2 ADD SWAP1 PUSH2 0x221 SWAP2 SWAP1 PUSH2 0x377 JUMP JUMPDEST SWAP2 POP POP SWAP1 JUMP JUMPDEST PUSH1 0x0 DUP2 SWAP1 POP SWAP2 SWAP1 POP JUMP JUMPDEST PUSH2 0x23A DUP2 PUSH2 0x227 JUMP JUMPDEST DUP3 MSTORE POP POP JUMP JUMPDEST PUSH1 0x0 PUSH1 0x20 DUP3 ADD SWAP1 POP PUSH2 0x255 PUSH1 0x0 DUP4 ADD DUP5 PUSH2 0x231 JUMP JUMPDEST SWAP3 SWAP2 POP POP JUMP JUMPDEST PUSH1 0x0 DUP1 REVERT JUMPDEST PUSH2 0x269 DUP2 PUSH2 0x227 JUMP JUMPDEST DUP2 EQ PUSH2 0x274 JUMPI PUSH1 0x0 DUP1 REVERT JUMPDEST POP JUMP JUMPDEST PUSH1 0x0 DUP2 CALLDATALOAD SWAP1 POP PUSH2 0x286 DUP2 PUSH2 0x260 JUMP JUMPDEST SWAP3 SWAP2 POP POP JUMP JUMPDEST PUSH1 0x0 PUSH1 0x20 DUP3 DUP5 SUB SLT ISZERO PUSH2 0x2A2 JUMPI PUSH2 0x2A1 PUSH2 0x25B JUMP JUMPDEST JUMPDEST PUSH1 0x0 PUSH2 0x2B0 DUP5 DUP3 DUP6 ADD PUSH2 0x277 JUMP JUMPDEST SWAP2 POP POP SWAP3 SWAP2 POP POP JUMP JUMPDEST PUSH1 0x0 DUP2 SWAP1 POP SWAP2 SWAP1 POP JUMP JUMPDEST PUSH1 0x0 DUP2 SWAP1 POP SWAP2 SWAP1 POP JUMP JUMPDEST PUSH1 0x0 PUSH2 0x2E8 PUSH2 0x2E3 PUSH2 0x2DE DUP5 PUSH2 0x2B9 JUMP JUMPDEST PUSH2 0x2C3 JUMP JUMPDEST PUSH2 0x227 JUMP JUMPDEST SWAP1 POP SWAP2 SWAP1 POP JUMP JUMPDEST PUSH2 0x2F8 DUP2 PUSH2 0x2CD JUMP JUMPDEST DUP3 MSTORE POP POP JUMP JUMPDEST PUSH1 0x0 DUP2 SWAP1 POP SWAP2 SWAP1 POP JUMP JUMPDEST PUSH1 0x0 PUSH2 0x323 PUSH2 0x31E PUSH2 0x319 DUP5 PUSH2 0x2FE JUMP JUMPDEST PUSH2 0x2C3 JUMP JUMPDEST PUSH2 0x227 JUMP JUMPDEST SWAP1 POP SWAP2 SWAP1 POP JUMP JUMPDEST PUSH2 0x333 DUP2 PUSH2 0x308 JUMP JUMPDEST DUP3 MSTORE POP POP JUMP JUMPDEST PUSH1 0x0 PUSH1 0x40 DUP3 ADD SWAP1 POP PUSH2 0x34E PUSH1 0x0 DUP4 ADD DUP6 PUSH2 0x2EF JUMP JUMPDEST PUSH2 0x35B PUSH1 0x20 DUP4 ADD DUP5 PUSH2 0x32A JUMP JUMPDEST SWAP4 SWAP3 POP POP POP JUMP JUMPDEST PUSH1 0x0 DUP2 MLOAD SWAP1 POP PUSH2 0x371 DUP2 PUSH2 0x260 JUMP JUMPDEST SWAP3 SWAP2 POP POP JUMP JUMPDEST PUSH1 0x0 PUSH1 0x20 DUP3 DUP5 SUB SLT ISZERO PUSH2 0x38D JUMPI PUSH2 0x38C PUSH2 0x25B JUMP JUMPDEST JUMPDEST PUSH1 0x0 PUSH2 0x39B DUP5 DUP3 DUP6 ADD PUSH2 0x362 JUMP JUMPDEST SWAP2 POP POP SWAP3 SWAP2 POP POP JUMP JUMPDEST PUSH1 0x0 DUP2 SLOAD SWAP1 POP SWAP2 SWAP1 POP JUMP JUMPDEST PUSH1 0x0 DUP3 DUP3 MSTORE PUSH1 0x20 DUP3 ADD SWAP1 POP SWAP3 SWAP2 POP POP JUMP JUMPDEST PUSH1 0x0 DUP2 SWAP1 POP DUP2 PUSH1 0x0 MSTORE PUSH1 0x20 PUSH1 0x0 KECCAK256 SWAP1 POP SWAP2 SWAP1 POP JUMP JUMPDEST PUSH2 0x3DE DUP2 PUSH2 0x227 JUMP JUMPDEST DUP3 MSTORE POP POP JUMP JUMPDEST PUSH1 0x0 PUSH2 0x3F0 DUP4 DUP4 PUSH2 0x3D5 JUMP JUMPDEST PUSH1 0x20 DUP4 ADD SWAP1 POP SWAP3 SWAP2 POP POP JUMP JUMPDEST PUSH1 0x0 DUP2 PUSH1 0x0 SHR SWAP1 POP SWAP2 SWAP1 POP JUMP JUMPDEST PUSH1 0x0 DUP2 SWAP1 POP SWAP2 SWAP1 POP JUMP JUMPDEST PUSH1 0x0 PUSH2 0x426 PUSH2 0x421 DUP4 PUSH2 0x3FC JUMP JUMPDEST PUSH2 0x409 JUMP JUMPDEST SWAP1 POP SWAP2 SWAP1 POP JUMP JUMPDEST PUSH1 0x0 PUSH2 0x439 DUP3 SLOAD PUSH2 0x413 JUMP JUMPDEST SWAP1 POP SWAP2 SWAP1 POP JUMP JUMPDEST PUSH1 0x0 PUSH1 0x1 DUP3 ADD SWAP1 POP SWAP2 SWAP1 POP JUMP JUMPDEST PUSH1 0x0 PUSH2 0x458 DUP3 PUSH2 0x3A4 JUMP JUMPDEST PUSH2 0x462 DUP2 DUP6 PUSH2 0x3AF JUMP JUMPDEST SWAP4 POP PUSH2 0x46D DUP4 PUSH2 0x3C0 JUMP JUMPDEST DUP1 PUSH1 0x0 JUMPDEST DUP4 DUP2 LT ISZERO PUSH2 0x4A5 JUMPI PUSH2 0x482 DUP3 PUSH2 0x42D JUMP JUMPDEST PUSH2 0x48C DUP9 DUP3 PUSH2 0x3E4 JUMP JUMPDEST SWAP8 POP PUSH2 0x497 DUP4 PUSH2 0x440 JUMP JUMPDEST SWAP3 POP POP PUSH1 0x1 DUP2 ADD SWAP1 POP PUSH2 0x471 JUMP JUMPDEST POP DUP6 SWAP4 POP POP POP POP SWAP3 SWAP2 POP POP JUMP JUMPDEST PUSH1 0x0 PUSH1 0x20 DUP3 ADD SWAP1 POP DUP2 DUP2 SUB PUSH1 0x0 DUP4 ADD MSTORE PUSH2 0x4CC DUP2 DUP5 PUSH2 0x44D JUMP JUMPDEST SWAP1 POP SWAP3 SWAP2 POP POP JUMP INVALID LOG2 PUSH5 0x6970667358 0x22 SLT KECCAK256 DUP13 0xC4 EXTCODESIZE 0x4A PUSH5 0x9F764462D 0xE2 BALANCE SHR DUP15 KECCAK256 0xC9 JUMPI SWAP3 0xC8 PUSH2 0xC7 0xBB 0x5E MSTORE DUP14 0xED 0xC7 0x1E 0xD9 0x24 0xD7 PUSH5 0x736F6C6343 STOP ADDMOD 0xC STOP CALLER PUSH1 0x80 PUSH1 0x40 MSTORE CALLVALUE DUP1 ISZERO PUSH2 0x10 JUMPI PUSH1 0x0 DUP1 REVERT JUMPDEST POP PUSH2 0x602 DUP1 PUSH2 0x20 PUSH1 0x0 CODECOPY PUSH1 0x0 RETURN INVALID PUSH1 0x80 PUSH1 0x40 MSTORE CALLVALUE DUP1 ISZERO PUSH2 0x10 JUMPI PUSH1 0x0 DUP1 REVERT JUMPDEST POP PUSH1 0x4 CALLDATASIZE LT PUSH2 0x4C JUMPI PUSH1 0x0 CALLDATALOAD PUSH1 0xE0 SHR DUP1 PUSH4 0x10B0B5D5 EQ PUSH2 0x51 JUMPI DUP1 PUSH4 0x9AAD0358 EQ PUSH2 0x81 JUMPI DUP1 PUSH4 0xA391C15B EQ PUSH2 0xB1 JUMPI DUP1 PUSH4 0xB67D77C5 EQ PUSH2 0xE1 JUMPI JUMPDEST PUSH1 0x0 DUP1 REVERT JUMPDEST PUSH2 0x6B PUSH1 0x4 DUP1 CALLDATASIZE SUB DUP2 ADD SWAP1 PUSH2 0x66 SWAP2 SWAP1 PUSH2 0x388 JUMP JUMPDEST PUSH2 0x111 JUMP JUMPDEST PUSH1 0x40 MLOAD PUSH2 0x78 SWAP2 SWAP1 PUSH2 0x3E0 JUMP JUMPDEST PUSH1 0x40 MLOAD DUP1 SWAP2 SUB SWAP1 RETURN JUMPDEST PUSH2 0x9B PUSH1 0x4 DUP1 CALLDATASIZE SUB DUP2 ADD SWAP1 PUSH2 0x96 SWAP2 SWAP1 PUSH2 0x388 JUMP JUMPDEST PUSH2 0x165 JUMP JUMPDEST PUSH1 0x40 MLOAD PUSH2 0xA8 SWAP2 SWAP1 PUSH2 0x3E0 JUMP JUMPDEST PUSH1 0x40 MLOAD DUP1 SWAP2 SUB SWAP1 RETURN JUMPDEST PUSH2 0xCB PUSH1 0x4 DUP1 CALLDATASIZE SUB DUP2 ADD SWAP1 PUSH2 0xC6 SWAP2 SWAP1 PUSH2 0x3FB JUMP JUMPDEST PUSH2 0x1B9 JUMP JUMPDEST PUSH1 0x40 MLOAD PUSH2 0xD8 SWAP2 SWAP1 PUSH2 0x3E0 JUMP JUMPDEST PUSH1 0x40 MLOAD DUP1 SWAP2 SUB SWAP1 RETURN JUMPDEST PUSH2 0xFB PUSH1 0x4 DUP1 CALLDATASIZE SUB DUP2 ADD SWAP1 PUSH2 0xF6 SWAP2 SWAP1 PUSH2 0x3FB JUMP JUMPDEST PUSH2 0x1CF JUMP JUMPDEST PUSH1 0x40 MLOAD PUSH2 0x108 SWAP2 SWAP1 PUSH2 0x3E0 JUMP JUMPDEST PUSH1 0x40 MLOAD DUP1 SWAP2 SUB SWAP1 RETURN JUMPDEST PUSH1 0x0 DUP1 PUSH1 0x0 JUMPDEST DUP4 MLOAD DUP2 LT ISZERO PUSH2 0x15B JUMPI DUP4 DUP2 DUP2 MLOAD DUP2 LT PUSH2 0x133 JUMPI PUSH2 0x132 PUSH2 0x43B JUMP JUMPDEST JUMPDEST PUSH1 0x20 MUL PUSH1 0x20 ADD ADD MLOAD DUP3 PUSH2 0x146 SWAP2 SWAP1 PUSH2 0x499 JUMP JUMPDEST SWAP2 POP DUP1 DUP1 PUSH2 0x153 SWAP1 PUSH2 0x4EF JUMP JUMPDEST SWAP2 POP POP PUSH2 0x117 JUMP JUMPDEST POP DUP1 SWAP2 POP POP SWAP2 SWAP1 POP JUMP JUMPDEST PUSH1 0x0 DUP1 PUSH1 0x0 JUMPDEST DUP4 MLOAD DUP2 LT ISZERO PUSH2 0x1AF JUMPI DUP4 DUP2 DUP2 MLOAD DUP2 LT PUSH2 0x187 JUMPI PUSH2 0x186 PUSH2 0x43B JUMP JUMPDEST JUMPDEST PUSH1 0x20 MUL PUSH1 0x20 ADD ADD MLOAD DUP3 PUSH2 0x19A SWAP2 SWAP1 PUSH2 0x499 JUMP JUMPDEST SWAP2 POP DUP1 DUP1 PUSH2 0x1A7 SWAP1 PUSH2 0x4EF JUMP JUMPDEST SWAP2 POP POP PUSH2 0x16B JUMP JUMPDEST POP DUP1 SWAP2 POP POP SWAP2 SWAP1 POP JUMP JUMPDEST PUSH1 0x0 DUP2 DUP4 PUSH2 0x1C7 SWAP2 SWAP1 PUSH2 0x567 JUMP JUMPDEST SWAP1 POP SWAP3 SWAP2 POP POP JUMP JUMPDEST PUSH1 0x0 DUP2 DUP4 PUSH2 0x1DD SWAP2 SWAP1 PUSH2 0x598 JUMP JUMPDEST SWAP1 POP SWAP3 SWAP2 POP POP JUMP JUMPDEST PUSH1 0x0 PUSH1 0x40 MLOAD SWAP1 POP SWAP1 JUMP JUMPDEST PUSH1 0x0 DUP1 REVERT JUMPDEST PUSH1 0x0 DUP1 REVERT JUMPDEST PUSH1 0x0 DUP1 REVERT JUMPDEST PUSH1 0x0 PUSH1 0x1F NOT PUSH1 0x1F DUP4 ADD AND SWAP1 POP SWAP2 SWAP1 POP JUMP JUMPDEST PUSH32 0x4E487B7100000000000000000000000000000000000000000000000000000000 PUSH1 0x0 MSTORE PUSH1 0x41 PUSH1 0x4 MSTORE PUSH1 0x24 PUSH1 0x0 REVERT JUMPDEST PUSH2 0x247 DUP3 PUSH2 0x1FE JUMP JUMPDEST DUP2 ADD DUP2 DUP2 LT PUSH8 0xFFFFFFFFFFFFFFFF DUP3 GT OR ISZERO PUSH2 0x266 JUMPI PUSH2 0x265 PUSH2 0x20F JUMP JUMPDEST JUMPDEST DUP1 PUSH1 0x40 MSTORE POP POP POP JUMP JUMPDEST PUSH1 0x0 PUSH2 0x279 PUSH2 0x1E5 JUMP JUMPDEST SWAP1 POP PUSH2 0x285 DUP3 DUP3 PUSH2 0x23E JUMP JUMPDEST SWAP2 SWAP1 POP JUMP JUMPDEST PUSH1 0x0 PUSH8 0xFFFFFFFFFFFFFFFF DUP3 GT ISZERO PUSH2 0x2A5 JUMPI PUSH2 0x2A4 PUSH2 0x20F JUMP JUMPDEST JUMPDEST PUSH1 0x20 DUP3 MUL SWAP1 POP PUSH1 0x20 DUP2 ADD SWAP1 POP SWAP2 SWAP1 POP JUMP JUMPDEST PUSH1 0x0 DUP1 REVERT JUMPDEST PUSH1 0x0 DUP2 SWAP1 POP SWAP2 SWAP1 POP JUMP JUMPDEST PUSH2 0x2CE DUP2 PUSH2 0x2BB JUMP JUMPDEST DUP2 EQ PUSH2 0x2D9 JUMPI PUSH1 0x0 DUP1 REVERT JUMPDEST POP JUMP JUMPDEST PUSH1 0x0 DUP2 CALLDATALOAD SWAP1 POP PUSH2 0x2EB DUP2 PUSH2 0x2C5 JUMP JUMPDEST SWAP3 SWAP2 POP POP JUMP JUMPDEST PUSH1 0x0 PUSH2 0x304 PUSH2 0x2FF DUP5 PUSH2 0x28A JUMP JUMPDEST PUSH2 0x26F JUMP JUMPDEST SWAP1 POP DUP1 DUP4 DUP3 MSTORE PUSH1 0x20 DUP3 ADD SWAP1 POP PUSH1 0x20 DUP5 MUL DUP4 ADD DUP6 DUP2 GT ISZERO PUSH2 0x327 JUMPI PUSH2 0x326 PUSH2 0x2B6 JUMP JUMPDEST JUMPDEST DUP4 JUMPDEST DUP2 DUP2 LT ISZERO PUSH2 0x350 JUMPI DUP1 PUSH2 0x33C DUP9 DUP3 PUSH2 0x2DC JUMP JUMPDEST DUP5 MSTORE PUSH1 0x20 DUP5 ADD SWAP4 POP POP PUSH1 0x20 DUP2 ADD SWAP1 POP PUSH2 0x329 JUMP JUMPDEST POP POP POP SWAP4 SWAP3 POP POP POP JUMP JUMPDEST PUSH1 0x0 DUP3 PUSH1 0x1F DUP4 ADD SLT PUSH2 0x36F JUMPI PUSH2 0x36E PUSH2 0x1F9 JUMP JUMPDEST JUMPDEST DUP2 CALLDATALOAD PUSH2 0x37F DUP5 DUP3 PUSH1 0x20 DUP7 ADD PUSH2 0x2F1 JUMP JUMPDEST SWAP2 POP POP SWAP3 SWAP2 POP POP JUMP JUMPDEST PUSH1 0x0 PUSH1 0x20 DUP3 DUP5 SUB SLT ISZERO PUSH2 0x39E JUMPI PUSH2 0x39D PUSH2 0x1EF JUMP JUMPDEST JUMPDEST PUSH1 0x0 DUP3 ADD CALLDATALOAD PUSH8 0xFFFFFFFFFFFFFFFF DUP2 GT ISZERO PUSH2 0x3BC JUMPI PUSH2 0x3BB PUSH2 0x1F4 JUMP JUMPDEST JUMPDEST PUSH2 0x3C8 DUP5 DUP3 DUP6 ADD PUSH2 0x35A JUMP JUMPDEST SWAP2 POP POP SWAP3 SWAP2 POP POP JUMP JUMPDEST PUSH2 0x3DA DUP2 PUSH2 0x2BB JUMP JUMPDEST DUP3 MSTORE POP POP JUMP JUMPDEST PUSH1 0x0 PUSH1 0x20 DUP3 ADD SWAP1 POP PUSH2 0x3F5 PUSH1 0x0 DUP4 ADD DUP5 PUSH2 0x3D1 JUMP JUMPDEST SWAP3 SWAP2 POP POP JUMP JUMPDEST PUSH1 0x0 DUP1 PUSH1 0x40 DUP4 DUP6 SUB SLT ISZERO PUSH2 0x412 JUMPI PUSH2 0x411 PUSH2 0x1EF JUMP JUMPDEST JUMPDEST PUSH1 0x0 PUSH2 0x420 DUP6 DUP3 DUP7 ADD PUSH2 0x2DC JUMP JUMPDEST SWAP3 POP POP PUSH1 0x20 PUSH2 0x431 DUP6 DUP3 DUP7 ADD PUSH2 0x2DC JUMP JUMPDEST SWAP2 POP POP SWAP3 POP SWAP3 SWAP1 POP JUMP JUMPDEST PUSH32 0x4E487B7100000000000000000000000000000000000000000000000000000000 PUSH1 0x0 MSTORE PUSH1 0x32 PUSH1 0x4 MSTORE PUSH1 0x24 PUSH1 0x0 REVERT JUMPDEST PUSH32 0x4E487B7100000000000000000000000000000000000000000000000000000000 PUSH1 0x0 MSTORE PUSH1 0x11 PUSH1 0x4 MSTORE PUSH1 0x24 PUSH1 0x0 REVERT JUMPDEST PUSH1 0x0 PUSH2 0x4A4 DUP3 PUSH2 0x2BB JUMP JUMPDEST SWAP2 POP PUSH2 0x4AF DUP4 PUSH2 0x2BB JUMP JUMPDEST SWAP3 POP DUP3 PUSH32 0xFFFFFFFFFFFFFFFFFFFFFFFFFFFFFFFFFFFFFFFFFFFFFFFFFFFFFFFFFFFFFFFF SUB DUP3 GT ISZERO PUSH2 0x4E4 JUMPI PUSH2 0x4E3 PUSH2 0x46A JUMP JUMPDEST JUMPDEST DUP3 DUP3 ADD SWAP1 POP SWAP3 SWAP2 POP POP JUMP JUMPDEST PUSH1 0x0 PUSH2 0x4FA DUP3 PUSH2 0x2BB JUMP JUMPDEST SWAP2 POP PUSH32 0xFFFFFFFFFFFFFFFFFFFFFFFFFFFFFFFFFFFFFFFFFFFFFFFFFFFFFFFFFFFFFFFF DUP3 EQ ISZERO PUSH2 0x52D JUMPI PUSH2 0x52C PUSH2 0x46A JUMP JUMPDEST JUMPDEST PUSH1 0x1 DUP3 ADD SWAP1 POP SWAP2 SWAP1 POP JUMP JUMPDEST PUSH32 0x4E487B7100000000000000000000000000000000000000000000000000000000 PUSH1 0x0 MSTORE PUSH1 0x12 PUSH1 0x4 MSTORE PUSH1 0x24 PUSH1 0x0 REVERT JUMPDEST PUSH1 0x0 PUSH2 0x572 DUP3 PUSH2 0x2BB JUMP JUMPDEST SWAP2 POP PUSH2 0x57D DUP4 PUSH2 0x2BB JUMP JUMPDEST SWAP3 POP DUP3 PUSH2 0x58D JUMPI PUSH2 0x58C PUSH2 0x538 JUMP JUMPDEST JUMPDEST DUP3 DUP3 DIV SWAP1 POP SWAP3 SWAP2 POP POP JUMP JUMPDEST PUSH1 0x0 PUSH2 0x5A3 DUP3 PUSH2 0x2BB JUMP JUMPDEST SWAP2 POP PUSH2 0x5AE DUP4 PUSH2 0x2BB JUMP JUMPDEST SWAP3 POP DUP3 DUP3 LT ISZERO PUSH2 0x5C1 JUMPI PUSH2 0x5C0 PUSH2 0x46A JUMP JUMPDEST JUMPDEST DUP3 DUP3 SUB SWAP1 POP SWAP3 SWAP2 POP POP JUMP INVALID LOG2 PUSH5 0x6970667358 0x22 SLT KECCAK256 STOP 0xCE 0xD3 0xD8 0xE3 BYTE 0xAD PUSH8 0x34593278875C2A7D CREATE 0xBF 0xF8 ISZERO MULMOD 0xDF TIMESTAMP PUSH16 0x3FA76D0B8F061C0064736F6C63430008 0xC STOP CALLER "
		},
		"gasEstimates": {
			"creation": {
				"codeDepositCost": "258000",
				"executionCost": "infinite",
				"totalCost": "infinite"
			},
			"external": {
				"arr(uint256)": "infinite",
				"performadd()": "infinite",
				"performsub()": "infinite"
			}
		},
		"methodIdentifiers": {
			"arr(uint256)": "71e5ee5f",
			"performadd()": "ec0c727d",
			"performsub()": "58186e81"
		}
	},
	"abi": [
		{
			"inputs": [],
			"stateMutability": "nonpayable",
			"type": "constructor"
		},
		{
			"inputs": [
				{
					"internalType": "uint256",
					"name": "",
					"type": "uint256"
				}
			],
			"name": "arr",
			"outputs": [
				{
					"internalType": "uint256",
					"name": "",
					"type": "uint256"
				}
			],
			"stateMutability": "view",
			"type": "function"
		},
		{
			"inputs": [],
			"name": "performadd",
			"outputs": [
				{
					"internalType": "uint256",
					"name": "",
					"type": "uint256"
				}
			],
			"stateMutability": "view",
			"type": "function"
		},
		{
			"inputs": [],
			"name": "performsub",
			"outputs": [
				{
					"internalType": "uint256",
					"name": "",
					"type": "uint256"
				}
			],
			"stateMutability": "view",
			"type": "function"
		}
	]
}